:060000000A128A11122809
:10000800FE00030E83120313AC000408AD000A08B7
:10001800AE007F08AF000A128A15882E0A128A15C8
:10002800822983120313471C630083120313471E9C
:100038001528CC01CA01CB017D2822308312031375
:10004800B7008530B8000A128A1195230A128A115E
:100058007D288D3083120313B7008430B8000A124C
:100068008A1195230A128A117D28023083120313FC
:10007800B7008630B8000A128A1195230A128A112D
:100088007D285A3083120313B7008530B8000A124E
:100098008A1195230A128A117D289230831203133C
:1000A800B7008530B8000A128A1195230A128A11FE
:1000B8007D28C93083120313B7008430B8000A12B0
:1000C8008A1195230A128A117D28CA3083120313D4
:1000D800B7008530B8000A128A1195230A128A11CE
:1000E8007D28063083120313C4004408CC007D2801
:1000F800CC01831203134719C9280330C6000830FE
:10010800C5007830C400C40B8728C50B8728C60BE8
:1001180087280A128A1568210A128A115730831211
:100128000313B7008430B8000030B9000030BA00BB
:100138000030BB000030BC000A128A1195230A1255
:100148008A11423083120313C400C40BA92800008B
:10015800831203134C08003A03192128013A0319A2
:100168002D28033A03193928013A03194528073A73
:1001780003195128013A03195D28033A031969281C
:10018800083A031975287C287D2847110230C600D3
:100198000430C500BA30C400C40BD028C50BD02821
:1001A800C60BD0280000831203134C08C40044086F
:1001B800CA04D8308B003C29303083120313B700AF
:1001C8008530B8000A128A1195230A128A113C292F
:1001D8009C3083120313B7008430B8000A128A11C6
:1001E80095230A128A113C290F3083120313B70092
:1001F8008630B8000A128A1195230A128A113C29FE
:10020800683083120313B7008530B8000A128A11C8
:1002180095230A128A113C29A03083120313B700D0
:100228008530B8000A128A1195230A128A113C29CE
:10023800D83083120313B7008430B8000A128A1129
:1002480095230A128A113C29D83083120313B70068
:100258008530B8000A128A1195230A128A113C299E
:10026800063083120313C4004408CC003C29CC0197
:1002780083120313471988290330C6000830C500C4
:100288007830C400C40B4629C50B4629C60B46293D
:100298000A128A1568210A128A1157308312031329
:1002A800B7008430B8000030B9000030BA00003020
:1002B800BB000030BC000A128A1195230A128A1169
:1002C800423083120313C400C40B68290000831250
:1002D80003134C08003A0319E028013A0319EC28E3
:1002E800033A0319F828013A03190429073A0319AC
:1002F8001029013A03191C29033A03192829083A35
:10030800031934293B293C2947110230C60004301F
:10031800C500BA30C400C40B8F29C50B8F29C60B82
:100328008F290000831203134C08C4000330031004
:10033800C40DFF3E031D9B290310440DC50045084D
:10034800CA04D8308B00042A3E3083120313B70046
:100358008530B8000A128A1195230A128A11042AD4
:10036800AB3083120313B7008430B8000A128A1125
:1003780095230A128A11042A1C3083120313B7002A
:100388008630B8000A128A1195230A128A11042AA3
:10039800763083120313B7008530B8000A128A1129
:1003A80095230A128A11042AAE3083120313B70068
:1003B8008530B8000A128A1195230A128A11042A74
:1003C800E73083120313B7008430B8000A128A1189
:1003D80095230A128A11042AE63083120313B70000
:1003E8008530B8000A128A1195230A128A11042A44
:1003F800063083120313C4004408CC00042ACC013D
:10040800831203134719502A0330C6000830C50069
:100418007830C400C40B0E2AC50B0E2AC60B0E2A50
:100428000A128A1568210A128A1157308312031397
:10043800B7008430B8000030B9000030BA0000308E
:10044800BB000030BC000A128A1195230A128A11D7
:10045800423083120313C400C40B302A00008312F5
:1004680003134C08003A0319A829013A0319B429BF
:10047800033A0319C029013A0319CC29073A031989
:10048800D829013A0319E429033A0319F029083A4B
:100498000319FC29032A042A47110230C600043034
:1004A800C500BA30C400C40B572AC50B572AC60B5F
:1004B800572A0000831203134C08C4004408CB04D5
:1004C800D8308B00C32A4C3083120313B700853011
:1004D800B8000A128A1195230A128A11C32ABA305F
:1004E80083120313B7008430B8000A128A119523C7
:1004F8000A128A11C32A293083120313B7008630DF
:10050800B8000A128A1195230A128A11C32A843064
:1005180083120313B7008530B8000A128A11952395
:100528000A128A11C32ABC3083120313B70085301C
:10053800B8000A128A1195230A128A11C32AF630C2
:1005480083120313B7008430B8000A128A11952366
:100558000A128A11C32AF43083120313B7008530B4
:10056800B8000A128A1195230A128A11C32A063082
:1005780083120313C4004408CC00C32ACC0183129D
:10058800031347190F2B0330C6000830C500783015
:10059800C400C40BCD2AC50BCD2AC60BCD2A0A121E
:1005A8008A1568210A128A11573083120313B7007B
:1005B8008430B8000030B9000030BA000030BB0009
:1005C8000030BC000A128A1195230A128A1142309F
:1005D80083120313C400C40BEF2A00008312031311
:1005E8004C08003A0319672A013A0319732A033A97
:1005F80003197F2A013A03198B2A073A0319972A04
:10060800013A0319A32A033A0319AF2A083A03192E
:10061800BB2AC22AC32A47110230C6000430C500CB
:10062800BA30C400C40B162BC50B162BC60B162BE1
:100638000000831203134C08C40003300310C40DD8
:10064800FF3E031D222B0310440DC5004508CB04B3
:100658008714BD300A128A154F210A128A11831293
:100668000313C4004408CF004F08AA3A031D502BB7
:100678004A080A128A154F210A128A118312031393
:10068800C4004408CF008230C500DD30C400C40B6C
:100698004B2BC50B4B2B502BBE300A128A154F2102
:1006A8000A128A1183120313C4004408CF004F08AA
:1006B800AA3A031D732B4B080A128A154F210A12F6
:1006C8008A1183120313C4004408CF008230C50086
:1006D800DD30C400C40B6E2BC50B6E2B732BCC30D6
:1006E8000A128A154F210A128A1183120313C400B1
:1006F8004408CF004F084B06031D892BC8018710FB
:100708000A128A1574220A128A11831203134712D5
:10071800D8308B00CC010A128A157B250A128A115F
:100728001528393083120313BD003D08C100831218
:1007380003133808BE003708BD000130B707031897
:10074800B80A3E08FF003D0884000A128A150020F6
:100758000A128A11BF003F08C200C2080319080024
:100768004208253A0319BF2B42080A128A150C21A0
:100778000A128A119B2B83120313C001D52B41083F
:10078800840083130008BD003D08C2000230BD008C
:100798003D08C10742080A128A150C210A128A115B
:1007A8009B2B831203133808BE003708BD000130A5
:1007B800B7070318B80A3E08FF003D0884000A126C
:1007C8008A1500200A128A11C200003A0319F12B77
:1007D800633A0319C32BCE2B9B2B080083120313F8
:1007E800B30005123308803E0A128A151622080043
:0607F800FF34FF34FF3462
:100800002534633453347534623473347434693446
:1008100074347534693464346F347234203464341D
:1008200065340A3443344B3454342734733420341D
:1008300069346E34743465346734723461346434CA
:100840006F3473340034203441346C34653478347C
:1008500061346E3464347234653420344C34693419
:100860006D3461340A342034543443342034323407
:1008700030343134333420342D342034343434346F
:10088000313431340034253463342034203453344B
:100890004334493444342D343234303431343334F5
:1008A000203420342034253463340A340034253491
:1008B00063342034203453344334493444342D34A5
:1008C000323430343134333420342034203425343D
:1008D000633400340A344534723472346F34203453
:1008E000643465342034673472346134763461346E
:1008F000633461346F3400340A34453472347234F2
:100900006F3420346434653420346C346534693495
:10091000743475347234613400340A3450346F34B2
:10092000723474346134203431343A3420344E34E7
:1009300041344E34443400340A3450346F34723409
:1009400074346134203432343A3420344E344134F7
:100950004E34443400340A3450346F3472347434B6
:100960006134203433343A3420344E3441344E34FC
:10097000443400340A3450346F3472347434613483
:10098000203434343A3420344E3441344E344434F8
:1009900000340A3450346F34723474346134203487
:1009A00031343A34203458344E344F3452340034D5
:1009B0000A3450346F347234743461342034323435
:1009C0003A34203458344E344F34523400340A34DC
:1009D00050346F34723474346134203433343A34E4
:1009E000203458344E344F34523400340A345034A6
:1009F0006F34723474346134203434343A342034F3
:100A000058344E344F345234003420345334653427
:100A10006C34653463342E34203470346F34723463
:100A2000743461347334003420342034203441343D
:100A300074342534633420346D3461346934733450
:100A4000213400340A3450346F34723474346134D5
:100A5000203431343A34203441344E344434003478
:100A60000A3450346F347234743461342034323484
:100A70003A34203441344E34443400340A3450344F
:100A80006F34723474346134203433343A34203463
:100A900041344E34443400340A3450346F347234A8
:100AA00074346134203434343A34203441344E3494
:100AB000443400340A3450346F3472347434613442
:100AC000203431343A3420344E344F3452340034EC
:100AD0000A3450346F347234743461342034323414
:100AE0003A3420344E344F34523400340A345034C3
:100AF0006F34723474346134203433343A342034F3
:100B00004E344F34523400340A3450346F3472341B
:100B100074346134203434343A3420344E344F3415
:100B2000523400340A3450346F34723474346134C3
:100B3000203431343A34203458344F345234003471
:100B40000A3450346F3472347434613420343234A3
:100B50003A34203458344F34523400340A34503448
:100B60006F34723474346134203433343A34203482
:100B700058344F34523400340A3450346F347234A1
:100B800074346134203434343A34203458344F349B
:100B9000523400340A3450346F3472347434613453
:100BA000203431343A3420344E344F345434003409
:100BB0000A3450346F347234743461342034323433
:100BC0003A3420344E344F34543400340A345034E0
:100BD0006F34723474346134203433343A34203412
:100BE0004E344F34543400340A3450346F34723439
:100BF00074346134203434343A3420344E344F3435
:100C0000543400340A3450346F34723474346134E0
:100C1000203431343A3420344F34523400340A34DE
:100C200050346F34723474346134203432343A3492
:100C300020344F34523400340A3450346F34723418
:100C400074346134203433343A3420344F345234E1
:100C500000340A3450346F347234743461342034C4
:100C600034343A3420344F34523400342034203475
:100C7000203420344434653473346C34693467343C
:100C80006134723400342034203420342034203451
:100C900034343034323437342A340034203420347D
:100CA000203420342034373434343134393431343E
:100CB0000034203420342034203420343734343489
:100CC0003134393432340034203420342034203468
:100CD000203437343434313436343534003420342D
:100CE0002034203420342034373434343034303419
:100CF0000034203420342034203420343734343449
:100D00003034323400342034203420342034203441
:100D10003734343433343234003420342034203403
:100D200020342034373434343034343400342034F4
:100D300020342034203420343734343437343434BD
:100D400000342034203420342034203437343434F8
:100D500038343634003420342034203420342034E5
:100D600037343434343437340034203420342034AD
:100D700020342034373434343034383400342034A0
:100D8000203420344534523452344F3400348312EA
:100D900003138714FF30A6002608CE000230A800F7
:100DA0000430A700BA30A600A60BD42EA70BD42E71
:100DB000A80BD42E0000352F83120313CE01632F0E
:100DC0000230312F0430312F0830312F2030312FB5
:100DD0002F30312F4930312F4A30312F5630312FBB
:100DE000A530312FBF30312FC030312F87100A127C
:100DF0008A151E210A128A111430F7008530F80076
:100E00000130F9000030FA000A128A15E7220A12AE
:100E10008A11053083120313A8000F30A700F430A5
:100E2000A600A60B112FA70B112FA80B112F053011
:100E300083120313A8000F30A700F430A600A60BFE
:100E40001F2FA70B1F2FA80B1F2F90308B00831273
:100E50000313C9018E018F01101047108613632FF1
:100E6000DE30A6002608CE00632F831203134C0841
:100E7000003A0319DC2E013A0319E02E033A031954
:100E8000E22E013A0319E42E073A0319E62E013A3D
:100E90000319E82E033A0319EA2E013A0319EC2E3E
:100EA0000F3A0319EE2E013A0319F02E033A0319F3
:100EB000F22E013A0319F42E073A0319F62E013ADD
:100EC0000319302F632F471C0800AC300A128A1513
:100ED00036210A128A1183120313A6002608CF00B6
:100EE0004F08AA3A031D812F4E080A128A1536218F
:100EF0000A128A1183120313A6002608CF001215C6
:100F0000EE2F87100A128A151E210A128A115730F5
:100F1000F7008430F8000030F9000030FA000030AB
:100F2000FB000030FC000A128A15E7220A128A111F
:100F3000423083120313A600A60B9C2F00006A30D8
:100F4000F7008430F8000A128A15E7220A128A1183
:100F5000033083120313A8000830A7007830A600DE
:100F6000A60BB02FA70BB02FA80BB02F0330831206
:100F70000313A8000830A7007830A600A60BBE2FE8
:100F8000A70BBE2FA80BBE2F033083120313A8009C
:100F90000830A7007830A600A60BCC2FA70BCC2FCB
:100FA000A80BCC2F033083120313A8000830A7002E
:100FB0007830A600A60BDA2FA70BDA2FA80BDA2FB2
:100FC000033083120313A8000830A7007830A6006E
:100FD000A60BE82FA70BE82FA80BE82FD8308B0023
:100FE000080083160313871287113230831203130C
:0E0FF0009400831603139101803094000800D2
:10100000FF1B0A2883137F1883170008840A03191B
:10101000FF0A08007F087F398A000408840A031940
:04102000FF0A820041
:10120C00F60076080A128A159C2108008312031333
:10121C00B60036080A128A15C3210800F30083129F
:10122C00031305127308803E0A128A15EA2108007E
:10123C008312031305121A30F300F30B2329000059
:10124C0001300A128A15EA210A128A150630F400B6
:10125C003030F300F30B3029F40B30290000080078
:10126C00F100FF30F0007008F200831203139416A3
:10127C0007137108930083160313141C412983125E
:10128C0003131308F0007008F20007179412720889
:10129C00080083120313B100FF30B0003008B20015
:1012AC00941607133108930083160313141C5A2940
:1012BC00831203131308B0003008B20007179412FE
:1012CC00320808008312031305121A30B300B30B53
:1012DC006D29000001300A128A1516220A128A158D
:1012EC00063083120313B4003030B300B30B7C29E7
:1012FC00B40B7C2900000800C701C801C901CA0150
:10130C00CB01CC010A128A11FC230A128A15CD00DA
:10131C000A128A11FD230A128A15CE000A128A11AA
:10132C00FE23CF0083010A128A15A42AF500B729DF
:10133C000A128A151E21080040300A128A1514213F
:10134C00080083120313051280300A128A15EA2151
:10135C00080083120313051675080A128A15EA2170
:10136C00080075080A3A0319A229063A03199E299E
:10137C00013A0319A729AF29080083120313B500FA
:10138C00DC290A128A156821080040300A128A11D9
:10139C00F2230800051280300A128A151622080062
:1013AC00051635080A128A15162208008312031333
:1013BC0035080A3A0319CB29063A0319C729013A09
:1013CC000319D029D6290800F2001A30F000F00BCE
:1013DC00ED290000F030F00070088312031385052E
:1013EC007208F00004300310F00CFF3E031DF929C5
:1013FC0070080F39F1007108850485168512F030DC
:10140C00F0007008850572080F39F000700885042B
:10141C00851685121A30F000F00B122A0000080015
:10142C0083120313B2001A30B000B00B1B2A000059
:10143C00F03083120313B000300885053208B00079
:10144C0004300310B00CFF3E031D272A30080F395F
:10145C00B1003108850485168512F030B0003008D3
:10146C00850532080F39B0003008850485168512C1
:10147C001A30B000B00B402A00000800831203138E
:10148C0007140230F2000430F100BA30F000F00B17
:10149C004D2AF10B4D2AF20B4D2A00008312031337
:1014AC0007108230F100DD30F000F00B5B2AF10BFD
:1014BC005B2A602A8312031307140230F2000430F3
:1014CC00F100BA30F000F00B692AF10B692AF20B2B
:1014DC00692A0000831203130710080083120313F8
:1014EC0007140230B2000430B100BA30B000B00BB7
:1014FC007D2AB10B7D2AB20B7D2A000083120313C7
:10150C0007108230B100DD30B000B00B8B2AB10B6C
:10151C008B2A902A8312031307140230B200043072
:10152C00B100BA30B000B00B992AB10B992AB20BAA
:10153C00992A0000831203130710080070308316D9
:10154C0003138F0083160317880189018316031375
:10155C0085017F308600BC30870083120313071788
:10156C008613871007108316031381010A128A153C
:10157C00C3230A128A150A128A11F1270A128A1534
:10158C008B0106308316031396007A3083120313F3
:10159C009200FF308316031392008C1430308312A8
:1015AC0003139000831603130C1483120313861376
:1015BC004710D8308B000A128A1115200A128A158E
:1015CC00E12A793083120313A0002008A4007808C4
:1015DC0083120313A1007708A0000130F70703184A
:1015EC00F80A2108FF00200884000A128A1500203E
:1015FC000A128A15A2002208A500A50803190800E2
:10160C002508253A0319112B25080A128A150621DB
:10161C000A128A15ED2A83120313A301272B24081F
:10162C00840083130008A0002008A5000230A0004D
:10163C002008A40725080A128A1506210A128A1501
:10164C00ED2A780883120313A1007708A00001305B
:10165C00F7070318F80A2108FF00200884000A1273
:10166C008A1500200A128A15A500003A0319432B8B
:10167C00633A0319152B202BED2A08000A128A1540
:10168C001E210A128A150030F7008430F800003051
:10169C00F9000030FA000A128A15E7220A128A159C
:1016AC00063083120313A8001330A700B130A60034
:1016BC00A60B5E2BA70B5E2BA80B5E2B652B0630A7
:1016CC0083120313A8001330A700B130A600A60B99
:1016DC006D2BA70B6D2BA80B6D2B742B0630831267
:1016EC000313A8001330A700B130A600A60B7C2B67
:1016FC00A70B7C2BA80B7C2B832B0A128A151E2183
:10170C000A128A152330F7008430F8000A128A1561
:10171C00E7220A128A15063083120313A80013302D
:10172C00A700B130A600A60B992BA70B992BA80BE1
:10173C00992BA02B063083120313A8001330A7009B
:10174C00B130A600A60BA82BA70BA82BA80BA82B77
:10175C00AF2B063083120313A8001330A700B1304F
:10176C00A600A60BB72BA70BB72BA80BB72BBE2B22
:10177C000A128A151E218B100800033083120313E2
:10178C00B5003508B700051285122730B600F530C4
:10179C00B500B50BCF2BB60BCF2B83120313370829
:1017AC008500851685120D30B600FB30B500B50BE3
:1017BC00DD2BB60BDD2BE22B831203138516851262
:1017CC008530B500B50BE82B8312031385168512F3
:1017DC008530B500B50BF02B023083120313850056
:1017EC008516851228300A128A1516220A128A15B5
:1017FC00213083120313B500B50B022C0C300A12E6
:10180C008A1516220A128A15213083120313B50089
:10181C00B50B0E2C0A128A1568210A128A15213072
:10182C0083120313B500B50B192C06300A128A1556
:10183C0016220A128A15213083120313B500B50B38
:10184C00252C83120313051240300A128A15162216
:10185C000A128A158312031305160A300A128A1506
:10186C0016220A128A151F300A128A1516220A121B
:10187C008A150E300A128A1516220A128A151F3082
:10188C000A128A1516220A128A150E300A128A15A5
:10189C0016220A128A151F300A128A1516220A12EB
:1018AC008A150E300A128A1516220A128A15003071
:1018BC000A128A1516220A128A1502300A128A1581
:1018CC0016220A128A1504300A128A1516220A12D6
:1018DC008A150E300A128A1516220A128A15113030
:1018EC000A128A1516220A128A151F300A128A1534
:1018FC0016220A128A1510300A128A1516220A129A
:10190C008A150E300A128A1516220A128A158312AB
:10191C00031305120A128A15682108000A128A1587
:10192C001E210A128A154330F7008430F80000306B
:10193C00F9000030FA000030FB000030FC000A1205
:10194C008A15E7220A128A154230FD00FD0BAC2CD9
:10195C0000004C2D6F30F7008630F8000A128A1503
:10196C00E72208007930F7008630F8000A128A1551
:10197C00E72208008D30F7008630F8000A128A152D
:10198C00E7220800B530F7008630F8000A128A15F5
:10199C00E72208008330F7008630F8000A128A1517
:1019AC00E7220800AB30F7008630F8000A128A15DF
:1019BC00E72208004330F7008630F8000A128A1537
:1019CC00E72208009730F7008630F8000A128A15D3
:1019DC00E7220800A130F7008630F8000A128A15B9
:1019EC00E72208006430F7008630F8000A128A15E6
:1019FC00E72208004E30F7008630F8000A128A15EC
:101A0C00E72208005930F7008630F8000A128A15D0
:101A1C00E72208000A128A151E210A128A15433081
:101A2C00F7008430F8000030F9000030FA00003084
:101A3C00FB000030FC000A128A15E7220A128A15F4
:101A4C003630F7008630F8000A128A15E7220800B3
:101A5C000530F7008530F8000A128A15E7220800D5
:101A6C000A128A151E210A128A15C230F700863016
:101A7C00F8000A128A15E7220A128A15BF30F700FD
:101A8C008630F8000A128A15E72208008312031325
:101A9C004C08003A0319B02C013A0319B82C033A3C
:101AAC000319C02C013A0319C82C073A0319D02C7E
:101ABC00013A0319D82C033A0319E02C013A031903
:101ACC00E82C0F3A0319F02C013A0319F82C033ABD
:101ADC000319002D013A0319082D073A0319102D8B
:101AEC00013A03192E2D362D08000A128A15682189
:101AFC000A128A15433083120313B7008430B800DE
:101B0C000030B9000030BA000030BB000030BC001F
:101B1C000A128A1195230A128A1542308312031372
:101B2C00C300C30B972D0000592E6F308312031383
:101B3C00B7008630B8000A128A1195230800793054
:101B4C0083120313B7008630B8000A128A1195234A
:101B5C0008008D3083120313B7008630B8000A12C8
:101B6C008A1195230800B53083120313B700863011
:101B7C00B8000A128A1195230800833083120313CC
:101B8C00B7008630B8000A128A1195230800AB30D2
:101B9C0083120313B7008630B8000A128A119523FA
:101BAC000800433083120313B7008630B8000A12C2
:101BBC008A1195230800973083120313B7008630DF
:101BCC00B8000A128A1195230800A130831203135E
:101BDC00B7008630B8000A128A11952308006430C9
:101BEC0083120313B7008630B8000A128A119523AA
:101BFC0008004E3083120313B7008630B8000A1267
:101C0C008A1195230800593083120313B7008630CC
:101C1C00B8000A128A11952308000A128A15682145
:101C2C000A128A15433083120313B7008430B800AC
:101C3C000030B9000030BA000030BB000030BC00EE
:101C4C000A128A1195230A128A153630831203134D
:101C5C00B7008630B8000A128A11952308000530A7
:101C6C0083120313B7008530B8000A128A1195232A
:101C7C0008000A128A1568210A128A15C2308312CA
:101C8C000313B7008630B8000A128A1195230A1282
:101C9C008A15BF3083120313B7008630B8000A12BE
:101CAC008A1195230800831203134C08003A031978
:101CBC009B2D013A0319A52D033A0319AF2D013AB7
:101CCC000319B92D073A0319C32D013A0319CD2D68
:101CDC00033A0319D72D013A0319E12D0F3A0319D1
:101CEC00EB2D013A0319F52D033A0319FF2D013A97
:101CFC000319092E073A0319132E013A0319352E2D
:101D0C003F2E08008B180B1ECA2E8B101A30AA00FF
:101D1C00F830A900A90B902EAA0B902E000083126C
:101D2C0003138E018F01C9014718B52E8B0186173D
:101D3C004714CC010A128A1544230A128A150A1276
:101D4C008A1594240A128A153130831203139000D9
:101D5C00831603130C14D8308B008B10F42F471CF4
:101D6C00CA2E8B01471EBC2E4715F42F0A128A115E
:101D7C00C7260A128A1583120313471CF42F0A1262
:101D8C008A1594240A128A150B188B1DFF2E8312A8
:101D9C000313060886000B10D030AA00C930A90026
:101DAC00A90BD62EAA0BD62EDB2E831203138E0173
:101DBC008F01C901471CF42F8618EC2E0130A900A5
:101DCC002908CC074C080E3A0319CC010619F82E39
:101DDC000130CC024C08FF3A031DF82E0D30A9003F
:101DEC002908CC00471AFF2E0A128A1594240A12CD
:101DFC008A15831203138C1CAB2F831603138C1CB4
:101E0C00AB2F831203138C100130A9002908C807CB
:101E1C004808053A031DAB2F8B01FF30A900290898
:101E2C00CF00CC300A128A1536210A128A15831279
:101E3C000313A9002908CF004F084E06031D332FAA
:101E4C00C801121187104E08DE3A031947160A1200
:101E5C008A1544220A128A15A92F83120313C8016A
:101E6C00121187100A128A151E210A128A15573070
:101E7C00F7008430F8000030F9000030FA00003030
:101E8C00FB000030FC000A128A15E7220A128A15A0
:101E9C00423083120313A900A90B522F00007C308F
:101EAC00F7008430F8000A128A15E7220A128A1504
:101EBC00033083120313AB000830AA007830A9005A
:101ECC00A90B662FAA0B662FAB0B662F0330831260
:101EDC000313AB000830AA007830A900A90B742FAB
:101EEC00AA0B742FAB0B742F033083120313AB00AC
:101EFC000830AA007830A900A90B822FAA0B822FD8
:101F0C00AB0B822F033083120313AB000830AA00F3
:101F1C007830A900A90B902FAA0B902FAB0B902F08
:101F2C00033083120313AB000830AA007830A900E9
:101F3C00A90B9E2FAA0B9E2FAB0B9E2F0A128A1554
:101F4C0094240A128A15D8308B00831203130C1CAC
:101F5C00F42F831603130C1CF42F831203130C1091
:101F6C000130A9002908C90746304902031CF42F87
:101F7C00C901101087100A128A151E210A128A151F
:101F8C001430F7008530F8000130F9000030FA0009
:101F9C000A128A15E7220A128A15053083120313D6
:101FAC00AB000F30AA00F430A900A90BDB2FAA0B51
:101FBC00DB2FAB0BDB2F053083120313AB000F3081
:101FCC00AA00F430A900A90BE92FAA0BE92FAB0B3F
:101FDC00E92F8B11831203134710861383122F08DA
:101FEC00FF002E088A002D0884002C0E8300FE0EA4
:041FFC007E0E09004C
:04400E00E4E0FFFFEC
:00000001FF
