:040000008A11112828
:10000800FE00030EF1000408F2000A08F300831250
:1000180003137F08F4008A15992F8A15692F831214
:1000280003130510FE30831603138500BF308600C6
:100038006B3087002130831203178D008316031756
:100048000C140000831203170C080F3983120313D2
:10005800A0002008F600831203170C08831203136C
:10006800A00004300310A00CFF3E031D3628200812
:100078000F39A1002108F7002230831203178D00E1
:10008800831603170C140000831203170C080F398A
:1000980083120313A0002008F800831203170C082A
:1000A80083120313A00004300310A00CFF3E031DAD
:1000B800582820080F39A1002108A400AC280130D5
:1000C800871E0039851E003974280130871E0039C3
:1000D800851E003982280030871A0138851A0138B0
:1000E80000389028851E7A2801307B280030A0002F
:1000F800871E8028013081280030200400389F287E
:10010800851E8828013089280030A000871E8E2887
:1001180001308F2800302006031DA428A828851E3A
:100128009728013098280030A000871E9D280130AC
:100138009E28003020060319A428A828871AA82872
:1001480083120313071602298312031307120229C5
:1001580076088400073004020318022908308A0050
:100168000310040D003E820002290130871D00396A
:10017800071F0039CA280130871D0039071F0039B9
:10018800D828003087190138071B01380038E628BD
:10019800071FD0280130D1280030A000871DD6289D
:1001A8000130D728003020040038F528071FDE2842
:1001B8000130DF280030A000871DE4280130E52841
:1001C80000302006031DFA28FE28071FED280130FD
:1001D800EE280030A000871DF3280130F4280030F5
:1001E80020060319FA28FE288719FE28831203130C
:1001F800871758298312031387135829770884000F
:10020800073004020318582908308A000310040D27
:100218000E3E820058290130061E0039861F00391B
:1002280020290130061E0039861F00392E2900308A
:10023800061A0138861B013800383C29861F2629F2
:10024800013027290030A000061E2C2901302D2955
:100258000030200400384B29861F34290130352905
:100268000030A000061E3A2901303B290030200644
:10027800031D50295429861F432901304429003081
:10028800A000061E492901304A290030200603191A
:1002980050295429861B5429831203130617A129B0
:1002A800831203130613A129780884000730040277
:1002B8000318A12908308A000310040D1C3E82008F
:1002C800A1290130071C0039871C00397629013023
:1002D800071C0039871C00398429003007180138A9
:1002E8008718013800389429871C7C2901307D291A
:1002F8000030A000071C8229013083290030200427
:100308000038031999299D29871C8C2901308D29CA
:100318000030A000071C92290130932900302006E4
:10032800031D99299D2907189D2983120313071571
:10033800AC28831203130711AC2824088400073063
:1003480004020318AC2808308A000310040D2A3E62
:100358008200AC28831203130514DE3083160313BE
:100368008500FF3086001930870083120313A1012E
:10037800850186018701071AC629A108031DC62918
:100388008710C72987148719CF292108093A031D1F
:10039800CF290711D0290715871D7910071EF910D5
:1003A800061A0718652A071A871D232AF918232A07
:1003B800F9140130A1022108FF3A031DE729093089
:1003C800A0002008A100211CED2983120313871621
:1003D800F0298312031387122108A00001300310AB
:1003E800A00CFF3E031DF329201CFE2983120313D2
:1003F8008516012A8312031385122108A0000230F2
:100408000310A00CFF3E031D042A201C0F2A831290
:1004180003130717122A8312031307132108A000D6
:1004280003300310A00CFF3E031D152A201C202AB0
:10043800831203138717232A831203138713071AB8
:10044800871DBF297918BF2979140130A000200819
:10045800A10721080A3A0319A101211C372A83128E
:10046800031387163A2A8312031387122108A00060
:1004780001300310A00CFF3E031D3D2A201C482A12
:100488008312031385164B2A83120313851221083E
:10049800A00002300310A00CFF3E031D4E2A201CB2
:1004A800592A8312031307175C2A831203130713AD
:1004B8002108A00003300310A00CFF3E031D5F2A93
:1004C800A52A061ABF297914F914A10105192114BE
:1004D800051AA114861A2115061BA115211C782AB4
:1004E8008312031387167B2A8312031387122108AA
:1004F800A00001300310A00CFF3E031D7E2A201C23
:10050800892A8312031385168C2A831203138512F2
:100518002108A00002300310A00CFF3E031D8F2A03
:10052800201C9A2A8312031307179D2A8312031388
:1005380007132108A00003300310A00CFF3E031D81
:10054800A02A201CAB2A831203138717BF29831202
:1005580003138713BF29831203130514DE30831690
:1005680003138500FF3086001930870083120313B8
:10057800A101850186018701071C8719C72A21085F
:100588000F3A0319CD2A071C871DCF2AA108031D7E
:10059800CF2A8710D02A871421080F3A0319871900
:1005A800D62ADA2AA1080319871DDC2A0715DD2AAD
:1005B8000711071C7910071E061E2F2B071879181C
:1005C800C02A7914871DF32A0130A1022108FF3AB5
:1005D800031DFB2A0F30A0002008A100FB2A0130D0
:1005E800A0002008A1072108103A0319A101211C25
:1005F800012B831203138716042B8312031387120C
:100608002108A00001300310A00CFF3E031D072B9A
:10061800201C122B831203138516152B8312031328
:1006280085122108A00002300310A00CFF3E031D14
:10063800182B201C232B831203130717262B831236
:10064800031307132108A00003300310A00CFF3E7A
:10065800031D292B6E2B061AC02A7914A10105192E
:100668002114051AA114861A2115061BA115211C8F
:10067800412B831203138716442B8312031387120B
:100688002108A00001300310A00CFF3E031D472BDA
:10069800201C522B831203138516552B8312031328
:1006A80085122108A00002300310A00CFF3E031D94
:1006B800582B201C632B831203130717662B8312F6
:1006C800031307132108A00003300310A00CFF3EFA
:1006D800031D692B201C742B831203138717C02A50
:1006E800831203138713C02A7030831603138F00F5
:1006F800831203179E019F01FE30831603138500A2
:10070800831203130510FF30831603138600FF308E
:10071800870080308100C0308B00831603178C015E
:10072800982B8A1198248A1183120313051A851E9F
:10073800AA2B071A871DAA2B871A851CAA2B05190D
:10074800071CAA2B871CAA2B0719952B013083128B
:1007580003178D00831603170C140000EA2B8A1563
:10076800C7278A11152C8A119F278A11152C8A11DF
:10077800AC268A11152C8A1166278A11152C8A1124
:100788002D278A11152C8A11EF268A11152C8A110A
:100798004B268A11152C8A11EA258A11152C8A11E3
:1007A80089258A11152C8A1114258A11152C8A116C
:1007B800AF228A11152C8A11AE218A11152C8A11A3
:1007C80013208A11152C8B136300152C8312031721
:1007D8000C08003A0319B32B023A0319B72B063A4F
:1007E8000319BB2B0C3A0319BF2B283A0319C32B47
:1007F8000F3A0319C72B663A0319CB2B033A03198F
:10080800CF2B1C3A0319D32BF33A0319D72B1A3AD7
:100818000319DB2B7F3A0319DF2B1E3A0319E32B4D
:10082800E72B8A11112883120313A0008B2CFB30AD
:1008380085008F308600F93087000800FF3085007A
:10084800EF308600FB3087000800FF3085009F30BE
:100858008600F83087000800FF308500CF3086001A
:10086800F83087000800FB308500EF308600FA304A
:1008780087000800FB308500CF308600FC308700F9
:100888000800FB3085008F308600FE3087000800A6
:10089800FF308500EF308600F93087000800FB3014
:1008A80085008F308600783087000800FB3085008F
:1008B800EF308600F83087000800FF3085009F3051
:1008C8008600FE3087000800FF308500CF308600A4
:1008D800FE3087000800FB308500FF308600FA30C4
:1008E80087000800FB308500DF308600FC30870079
:1008F8000800FB3085009F308600FE308700080026
:10090800FF308500FF308600FF3087000800200890
:100918008400103004020318080007308A0003100E
:10092800040DD83E820008008312031305148A15AB
:100938005C278A11831603130D16AA308A11F8272B
:100948008A117508FF3A0319A52C7508AC3A031DDE
:10095800D02C7508AC3A0319AD2C831603138C11EF
:1009680001308A1580278A116300831603170C1437
:10097800831203170C088A11F8278A1183160313A8
:100988008C157508CC3A031DC52CFF308312031350
:10099800A1002108F50008007508BD3A031DED2CDB
:1009A8007508BD3A0319D42C831603138C11213012
:1009B8008A1580278A116300831603170C14AA303E
:1009C8008A11F827FF3083120313A1002108F500CC
:1009D80008007508BE3A031D08007508BE3A0319D9
:1009E800F12C831603138C1122308A1580278A1163
:1009F8006300831603170C14831203170C088A115B
:100A0800F8278A11831603138C157508CC3A031D31
:100A1800092DFF3083120313A1002108F5000800F7
:100A2800831203130514FE30831603138500BF30A9
:100A380086007F30870083120313A101861E262DAE
:100A4800A1172A2D7F30A0002008A10506138717BB
:100A5800851E791005197914051A682D7914A101D4
:100A6800071F372D2114871D3A2DA114071E3D2D70
:100A78002115871E402DA115071C432D2116871C03
:100A8800462DA116071D492D2117061E4C2DA1170D
:100A9800211C522D831203130617552D831203139D
:100AA8000613061B5B2D8312031387175E2D831213
:100AB800031387130310A10C861E642DA117682D3C
:100AC8007F30A0002008A105851A79182C2D7914EB
:100AD800861E702DA117742D7F30A0002008A10557
:100AE800211C7A2D8312031306177D2D83120313FD
:100AF8000613061B832D831203138717862D831273
:100B0800031387130310A10C2C2D83120313051054
:100B1800FE30831603138500BF3086006B308700D4
:100B28008312871E992D01309A2D0030A000851E52
:100B38009F2D0130A02D003020060319A72D831208
:100B480003130716AA2D831203130712071FAE2DCE
:100B58000130AF2D0030A000871DB42D0130B52D18
:100B6800003020060319BC2D831203138717BF2DED
:100B7800831203138713061EC32D0130C42D0030C2
:100B8800A000861EC92D0130CA2D00302006031989
:100B9800D12D831203130617D42D831203130613C2
:100BA800071CD82D0130D92D0030A000871CDE2D60
:100BB8000130DF2D003020060319E62D83120313C0
:100BC8000715942D831203130711942D8312031311
:100BD8000510FE308316031385009F3086003F30D2
:100BE80087008312071E7910851A871D112E071A90
:100BF8007918202E7914871E052E831203130717E0
:100C0800082E831203130713071B0E2E83120313D8
:100C18008717202E831203131F2E851E8719162E61
:100C280007178717851E871D1B2E07138717851A19
:100C38008719202E07178713071DF9100718061E96
:100C48003B2E0719F918F52DF914871C2F2E83123E
:100C580003138616322E831203138612861A382E31
:100C6800831203130617F52D83120313492E071C4D
:100C7800061A402E86160617071C061E452E8612D3
:100C880006170718061AF52D86160613F52D831272
:100C980003130514FE308316031385009F30860066
:100CA8003F3087008312071E7910851A871D722E20
:100CB800071A7918812E7914871E662E831203135A
:100CC8000717692E831203130713071B6F2E83124E
:100CD80003138717812E83120313802E851E87190D
:100CE800772E07178717851E871D7C2E07138717F2
:100CF800851A8719812E07178713071DF9100718FA
:100D0800061E9C2E0719F918562EF914871C902ECA
:100D1800831203138616932E831203138612861AE0
:100D2800992E831203130617562E83120313AA2E25
:100D3800071C061AA12E86160617071C061EA62EC5
:100D4800861206170718061A562E86160613562EEA
:100D5800831203130510FE30831603138500AF308A
:100D68008600553087008312851ABE2E831203131E
:100D78008716C12E831203138712071AC72E8312F0
:100D880003138715CA2E831203138711071BD02E4E
:100D9800831203138717D32E831203138713861A1C
:100DA800D92E831203130617DC2E8312031306139E
:100DB8000719E22E831203130616E52E8312031376
:100DC80006120718EB2E831203138714B72E83120B
:100DD80003138710B72E831203130514FA308316F2
:100DE800031385008F308600F830870083120313C1
:100DF800A201112F071A871D152F0030071B083075
:100E0800851A0438051A0238871B0138A100210801
:100E1800A20022088A1117248A1183120313871A41
:100E2800FE2E871E071E1C2F08308A1117248A11D0
:100E380083120313871D871E272F071E272F0F30A6
:100E48008A1117248A1183120313071A112F0F30DE
:100E58000E2F831203130510FE308316031385002B
:100E6800BF3086006B3087008312A001A00A851E60
:100E7800871A3F2FA0012008031D07160319071220
:100E8800A101A10A871D071B4A2FA1012108031DE3
:100E9800871703198713A201A20A861E061A552F5F
:100EA800A2012208031D061703190613A301A30AAA
:100EB800871C0718602FA3012308031D07150319B2
:100EC8000711382F831203130510FE3083160313FE
:100ED8008500BF3086006B3087008312A001851A19
:100EE800871E782FA001A00A2008031D07160319E2
:100EF8000712A1018719071F832FA101A10A210841
:100F0800031D871703198713A201861A061E8E2F41
:100F1800A201A20A2208031D061703190613A3013A
:100F28008718071C992FA301A30A2308031D071577
:100F380003190711712F831203130510DE3083166E
:100F480003138500EF308600F63087008312A00176
:100F5800871E071AB12FA001A00A2008031D8516B5
:100F680003198512A101871F071BBC2FA101A10A24
:100F78002108031D871503198711A201861E061B68
:100F8800C72FA201A20A2208031D0616031906127A
:100F9800A301871C0719D22FA301A30A2308031D45
:100FA800071403190710AA2F8A111B2C8A11222C47
:100FB8008A11292C8A11302C8A11372C8A113E2C3F
:100FC8008A11452C8A114C2C8A11532C8A115A2CBF
:100FD8008A11612C8A11682C8A116F2C8A11762C3F
:100FE8008A117D2C8A11842C83120313A0002008F7
:060FF80093000800FF3425
:101000008A1163288A1169288A116F288A11762823
:101010008A1184288A1193288A11A2288A11B92852
:101020008A11BF288A11C5288A11CC288A11DA288A
:101030008A11E9288A11F8288A110F298A1115299D
:101040008A111B298A1122298A1130298A113F29E4
:101050008A114E298A1165298A116B298A117129F1
:101060008A1178298A1188298A1188298A11972951
:101EB000FF34FF34FF34FF348316031387130617F0
:101EC00034308312031394008316031394018C158A
:101ED0000800F9018A11FE278A15A4008A155827DF
:101EE0008A15F5008A1559278A15F6008A155A278A
:101EF0008A15F7008A155B27F80083018A11782B71
:101F000083120313A0008B13831603170C1583127F
:101F100003132008831203178D0075088C005530B9
:101F2000831603178D00AA308D008C148B170C11AB
:101F300008008C1DB12F831603138C1DB12F831243
:101F400003138C111308F0007008F5007508AA3A05
:101F5000031DAE2FFF30F0007008F5008316031349
:101F6000141083120D1EBB2F831603130D1EBB2FDF
:101F7000831203130D1274088312FF0073088A0082
:101F800072088400710E8300FE0E7E0E090083121B
:101F900003130510FE30831603138500BF3086003F
:101FA0006B3087008312A001A00A851A871ED92FE3
:101FB000A0012008031D071603190712A101A10A99
:101FC0008719071FE42FA1012108031D8717031993
:101FD0008713A201A20A861A061EEF2FA201220869
:101FE000031D061703190613A301A30A8718071C6C
:101FF000FA2FA3012308031D071503190711D22F78
:02400E00C4F0FC
:00000001FF
